:020000040800F2
:10000000C0060020ED0100086B0F0008810E0008FB
:10001000690F0008DB0300085D1000080000000005
:100020000000000000000000000000006F0F00084A
:10003000DD030008000000006D0F0008710F0008CC
:10004000070200080702000807020008070200086C
:10005000070200080702000807020008070200085C
:100060000702000807020008E10300080702000871
:10007000070200080702000807020008070200083C
:10008000070200080702000807020008070200082C
:10009000070200080702000807020008070200081C
:1000A000070200080702000807020008070200080C
:1000B00007020008070200080702000807020008FC
:1000C00007020008070200080702000807020008EC
:1000D00007020008070200080702000807020008DC
:1000E00007020008070200080702000800000000DD
:1000F0000000000000000000000000000000000000
:1001000000000000000000000702000807020008CD
:10011000070200080702000807020008070200089B
:10012000070200080702000807020008070200088B
:10013000070200080702000807020008070200087B
:10014000070200080702000807020008070200086B
:1001500000F002F800F03AF80AA090E8000C82449F
:100160008344AAF10107DA4501D100F02FF8AFF27C
:10017000090EBAE80F0013F0010F18BFFB1A43F085
:10018000010318477816000098160000103A24BFA3
:1001900078C878C1FAD8520724BF30C830C144BFEC
:1001A00004680C607047000000230024002500262E
:1001B000103A28BF78C1FBD8520728BF30C148BFCA
:1001C0000B6070471FB51FBD10B510BD00F0CFF814
:1001D0001146FFF7F7FF01F04BF900F0EDF803B41B
:1001E000FFF7F2FF03BC00F0F1F800000948804778
:1001F00009480047FEE7FEE7FEE7FEE7FEE7FEE709
:10020000FEE7FEE7FEE7FEE704480549054A064B20
:1002100070470000DD0F000851010008C0000020F9
:10022000C0060020C0020020C002002053EA020CD9
:1002300000F069802DE9F04B4FF00006002B1FBF46
:10024000B3FA83F503FA05F424FA05F65E4012BF0B
:100250001643B2FA82F502FA05F4C5F120051EBF75
:1002600022FA05FC44EA0C04203556EA044C4FEA15
:10027000144418BF641C4FF000084FF0000990426E
:1002800071EB030C39D3002919BFB1FA81F701FAD8
:1002900007F6B0FA80F700FA07F6C7F120071EBF8D
:1002A00020FA07FC46EA0C062037B6FBF4FCA7EB65
:1002B0000507103F07F01F0BCBF120060CFA0BFBD4
:1002C0002CFA06F644BFB3460026202FA4BF5E4694
:1002D0004FF0000B5BEA060C08BF4FF0010B19EB67
:1002E0000B09ABFB027C48EB0608C01B06FB02CCEB
:1002F0000BFB03CC71EB0C01C1E70B4602464146F8
:100300004846BDE8F08B13B54FF000004FF00001F8
:10031000AFF30080BDE81C4070474FF0000200B50D
:10032000134694469646203922BFA0E80C50A0E818
:100330000C50B1F12001BFF4F7AF090728BFA0E8C6
:100340000C5048BF0CC05DF804EB890028BF40F892
:10035000042B08BF704748BF20F8022B11F0804FD4
:1003600018BF00F8012B70477047704770477546FB
:1003700000F028F8AE4605006946534620F0070015
:10038000854618B020B5FFF73FFFBDE820404FF08D
:1003900000064FF000074FF000084FF0000B21F06F
:1003A0000701AC46ACE8C009ACE8C009ACE8C0093C
:1003B000ACE8C0098D4670470446AFF30080204684
:1003C000FFF70DFF004870475C000020014918202E
:1003D000ABBEFEE7260002007047FEE77047000054
:1003E00010B5064C2068406A05490880102000F0CE
:1003F0000DF821680020486210BD000014000020A4
:100400000000002072B6FEE770470000044910B5F6
:100410000A68024202D00860FFF7F6FF10BD000034
:10042000140401402DE9F84FDFF8B891002409F1D8
:10043000040A0AF1040B23460F270BF1040EC9E04E
:100440000125A5402A40AA427DD1674ED1F804C0BB
:10045000ACEB0608B44532D014DCBCF1030F3AD043
:1004600009DCBCF1000F2AD0BCF1010F1CD0BCF19B
:10047000020F31D11DE0BCF1110F17D0BCF1120FEA
:100480002AD119E0B8F5881F19D006DCB8F5803FED
:1004900015D0B8F5801F1FD111E0B8F5001F0ED0A0
:1004A000B8F5041F18D10AE0CB6815E0CB681B1D16
:1004B00012E0CB6808330FE0CB680C330CE08B689C
:1004C0002BB1012B4FF0080303D0456104E0042356
:1004D00002E0056100E00023FF2A01D8064601E0A2
:1004E00000F104064FEA840501D9A5F12005D6F8EC
:1004F000008007FA05FC28EA0C0803FA05F548EA2B
:100500000508C6F800804D68ED0062D5374DAE692C
:1005100046F00106AE61AD6924F0030605F0010561
:100520000095334D06EB050CDCF80850A607360F96
:1005300007FA06F825EA0805DFF8B880404503D138
:100540004FF0000817E044E0DFF8AC80404502D1EE
:100550004FF001080FE0DFF8A480404502D14FF0D2
:10056000020808E0DFF89880404502D14FF0030808
:1005700001E04FF0040808FA06F848EA0508CCF84C
:1005800008804D68D9F80060ED034D4601D516434B
:1005900000E096432E604D68DAF80060AD035546E2
:1005A00001D5164300E096432E604D68DBF80060ED
:1005B000ED025D4601D5164300E096432E604D687E
:1005C000DEF80060AD02754601D5164300E09643A3
:1005D0002E60641C0D682A46E5407FF431AFBDE80B
:1005E000F88F0000000401400000111000100240CC
:1005F0000000014000080140000C014000100140D3
:10060000001401400AB1016170470904FBE70000D2
:10061000014880687047000004000020024881689B
:10062000027811448160704704000020074810B52B
:10063000016841F010010160032000F06DF80F2007
:1006400000F006F800F024F8002010BD0020024061
:1006500070B50D4D04464FF47A712878B1FBF0F077
:100660000A490968B1FBF0F000F04EFB48B9102CC4
:1006700007D200222146501E00F02EF800206C60A8
:1006800070BD012070BD000004000020100000209B
:10069000094808B5816941F001018161816901F072
:1006A00001010091C16941F08051C161C06900F050
:1006B0008050009008BD000000100240002809DBB7
:1006C00000F01F02012191404009800000F1E0206C
:1006D000C0F8001170470000F0B40E4B1B680C46C8
:1006E000C3F30223C3F10705042D00D90425191D06
:1006F000072901D2002300E0DB1E012606FA05F1DE
:10070000491E214099409E40761E16403143F0BC60
:1007100000F0A5BC0CED00E0064900F007020868F7
:100720004FF6FF03184040EA0220034A10430860D6
:10073000704700000CED00E00000FA052DE9F047DD
:100740000F46050061D0434E306800F00700B84204
:1007500009D2306820F0070038433060306800F07C
:100760000700B84251D128683B4C810712D5400799
:1007700003D5606840F4E06060602878000703D526
:10078000606840F4605060606068A96820F0F00024
:10079000084360602878C00728D06868012810D016
:1007A0002168022810D0890700292EDA616821F01B
:1007B000030101436160FFF72BFF804641F2883956
:1007C0000DE021688903EFE78901EDE7FFF720FFDE
:1007D000A0EB0801494502D90320BDE8F087606815
:1007E000696800F00C00B0EB810FEFD1306800F0C9
:1007F0000700B8420BD9306820F00700384330605A
:10080000306800F00700B84201D00120E5E7287801
:10081000400705D56068E96820F4E060084360603F
:100820002878000706D56068296920F4605040EAFE
:10083000C100606000F018F86168084AC1F3031154
:10084000515CC8400649086006480068FFF700FF91
:100850000020C2E70020024000100240EC17000810
:100860001000002008000020F0B523A289B00FCAB4
:1008700004AC84E80F0024A10FC98DE80F002649BD
:100880004A68264802F00C03042B2FD0082B2DD1E8
:1008900004A8C2F38343C45CD00329D5C86A00F01E
:1008A0000F001DF80020C86AC00316D5C86AC96ABF
:1008B000C0F30310C1F30321401C891CA0FB0223D9
:1008C000A1FB0416154F0025A1FB070C06FB07C66C
:1008D00001FB0561FFF7AAFC03E010486043B0FB91
:1008E000F2F09DF81D10A14200D1400809B0F0BD02
:1008F0000B486043FAE700000000040506070809FA
:1009000000000000000D00000102030405060708B6
:10091000090A0B0C0D0E0F100010024000127A0095
:1009200000093D002DE9F84F040070D02078F14D0A
:10093000C00749D06868C0F38100012807D0686803
:10094000C0F38100022809D16868C00306D5286871
:10095000800339D5A0680028E7D035E0A068B0F55D
:10096000803F0BD010B1B0F5A02F11D0286820F433
:1009700080302860286820F4802002E0286840F455
:1009800080302860A06890B1FFF742FE06460AE07A
:10099000286840F480202860F0E700BFFFF738FEA9
:1009A000801B642876D828688003F7D50CE0FFF711
:1009B0002FFE064605E000BFFFF72AFE801B6428D5
:1009C000F0D828688003F7D42078CB4E80074FF00A
:1009D00001094FF000073AD5686810F00C0F07D0F6
:1009E0006868C0F38100022809D16868C00306D492
:1009F0002868800715D56069012808D111E0606971
:100A0000B8B1C6F80090FFF703FE804606E042E169
:100A1000FFF7FEFDA0EB08000228C3D82868800776
:100A2000F6D52868A16920F0F80040EAC1002860E6
:100A30000DE03760FFF7ECFD804605E0FFF7E8FDCD
:100A4000A0EB08000228ADD828688007F6D42078EB
:100A500000072ED5A948E169E9B1C0F80090FFF779
:100A6000D7FD804606E000BFFFF7D2FDA0EB0800EF
:100A7000022897D8686A8007F6D5A1484FF4FA5142
:100A80000068B0FBF1F0009000BF0098411E00919B
:100A9000FAD20EE0B0E00760FFF7BAFD804605E04D
:100AA000FFF7B6FDA0EB0800022889D8686A800726
:100AB000F6D42078400763D5E8694FF00008C000FD
:100AC00009D4E86940F08050E861E8694FF0010816
:100AD00000F0805000908B480168C90512D401686D
:100AE000834641F480710160FFF792FD824605E084
:100AF000FFF78EFDA0EB0A0064287DD8DBF800002C
:100B0000C005F5D5206901280AD008B1052813D001
:100B1000286A20F001002862286A20F0040002E020
:100B2000286A40F001002862206941F2883B98B1B0
:100B3000FFF76EFD82460BE0286A40F00400286251
:100B4000EEE700BFFFF764FDA0EB0A01594553D85B
:100B5000286A8007F6D50CE0FFF75AFD824605E0CB
:100B6000FFF756FDA0EB0A01594545D8286A8007D2
:100B7000F6D4B8F1000F03D0E86920F08050E861A6
:100B8000E06AD0B36968C90307D56968C1F3810118
:100B9000022902D1E96AC9037DD4022808D0E86A93
:100BA00020F48030E862B766FFF732FD80463BE014
:100BB0002868C00005D5E86A616B00F0F000884243
:100BC00069D1B766FFF724FD804605E0FFF720FDF9
:100BD000A0EB0800642874D828680001F6D4E86AFD
:100BE000616B20F0F0000843E862E86A216B20F4B2
:100BF00070600843E86201E063E018E0C6F86890BE
:100C0000FFF706FD804605E0FFF702FDA0EB0800B8
:100C1000642856D828680001F6D508E0FFF7F8FCEC
:100C2000A0EB080064284CD828680001F6D4206A9C
:100C300090B36968C1F38101022949D0022837665F
:100C400003D0FFF7E5FC04463EE0FFF7E1FC074672
:100C500005E000BFFFF7DCFCC01B022831D8286884
:100C60008001F7D4606AB0F5803F09D1E86A616815
:100C70000843E862E86AE16820F00F000843E86290
:100C8000D4E909010843696821F4741108436860D4
:100C9000C6F8609001E028E029E0FFF7B9FC0446BF
:100CA00005E000BFFFF7B4FC001B022809D8286844
:100CB0008001F7D51BE000BFFFF7AAFC001B02284C
:100CC00002D90320BDE8F88F28688001F4D40EE033
:100CD0000128F7D06868626A00F48031914204D13B
:100CE000A16A00F47010884201D00120EAE70020D8
:100CF000E8E7000000100240000042428004424247
:100D0000100000200070004010B5401EB0F1807F40
:100D100001D3012010BD4FF0E02460610F21601766
:100D200000F09DF90020A06107202061002010BD87
:100D300070B590F83C20012A29D0012480F83C406D
:100D4000022280F83D2003685A689D6822F07006F0
:100D50000A6832435A600F4B02689A420BD0B2F1D4
:100D6000804F08D00C4B9A4205D00C4B9A4202D0CF
:100D70000B4B9A4204D1496825F0800319439160D6
:100D800080F83D40002180F83C10084670BD0220EC
:100D900070BD0000002C014000040040000800402D
:100DA000000C004010B5040003D094F83D0010B1D1
:100DB00007E0012010BD002084F83C00204600F030
:100DC0001FF8022084F83D00211D206800F008F97A
:100DD000012084F8460084F83E0084F83F0084F83F
:100DE000400084F8410084F8420084F8430084F80D
:100DF000440084F8450084F83D00002010BD000048
:100E000008B500680649884208D10648C16941F022
:100E10002001C161C06900F02000009008BD000001
:100E2000001400400010024090F83D10012901D04C
:100E300001207047022180F83D1000680C4988426B
:100E40000BD0B0F1804F08D00A49884205D00A493A
:100E5000884202D00949884204D1816801F0070123
:100E6000062903D0016841F00101016000207047AC
:100E7000002C01400004004000080040000C00402D
:100E8000FEE7000070B586B000242148009401946C
:100E900002940394816941F040018161816901F00C
:100EA00040010491816941F0100181618069194E0E
:100EB00000F010004FF4F855049000222946304607
:100EC000FFF7A0FBFF20CDE90004694630460294FD
:100ED000FFF7A8FA102000900F48CDE901046946F9
:100EE0000E48FFF79FFA01200095CDE9010402208A
:100EF000039069463046FFF795FA002211460A2012
:100F0000FFF7EAFB0A20FFF7D9FB06B070BD00002F
:100F100000100240001801400000111000100140B4
:100F20001CB500240F4800940D49019401604FF452
:100F3000E151C0E9011442F210718461C160FFF710
:100F400031FF08B1FFF75EFA009469460548019445
:100F5000FFF7EEFE002801D0FFF754FA1CBD000099
:100F60000014004014000020FEE7FEE770477047C1
:100F7000FFF754BB70B594B038216846FFF7CDF940
:100F800014210EA8FFF7C9F9012500242804CDE992
:100F900002040226CDE908600095059501944FF4FE
:100FA000E010CDE90A046846FFF7BCFC08B172B650
:100FB000FEE70F20CDE90E064FF48060CDE910402A
:100FC00002210EA81294FFF7B9FB08B172B6FEE732
:100FD0000148056714B070BD000042427047000030
:100FE000F0B50268194B1A4C1A4D1B4E4FF0804752
:100FF000984207D0B84205D0A04203D0A84201D001
:10100000B04204D122F0700C4A6842EA0C029842C5
:1010100007D0B84205D0A04203D0A84201D0B042C8
:1010200003D122F44074CA6822434C6922F0800242
:10103000224302608A68C2620A688262984201D1D1
:101040000969016301214161F0BD0000002C0140EC
:101050000004004000080040000C0040FEE70907C3
:10106000090E002804DB00F1E02080F8001470472E
:1010700000F00F0000F1E02080F8141D704710B55B
:10108000002401223921204600F0DCF801222E2123
:10109000204600F0D7F8641CE4B2802CF1D32E2453
:1010A00001222146002000F0CDF8012221467F20B8
:1010B00000F0C8F8641CE4B2392CF1D310BD70B54F
:1010C00000242146002000F033F80025002000F025
:1010D00093F96D1CEDB2802DF8D3641CE4B2082C9A
:1010E000EFD3BDE870400021084600F021B80000B1
:1010F000064B30B1012807D10122C1021846FFF783
:1011000081BA01221103F9E770470000001801407D
:10111000064B30B1012808D10022C1021846FFF762
:1011200071BA00224FF48051F8E77047001801406F
:1011300070B505461448002441F0B8060570134800
:1011400001704021204600F023F93146204600F08E
:101150001FF9C021204600F01BF9641CE4B2022CE8
:10116000EFD305F03F0040F04001AC09204600F00D
:101170000FF93146204600F00BF92046BDE87040DB
:10118000C02100F005B9000002000020030000208B
:1011900010B500F00BF800243F21204600F0F8F8CD
:1011A000641CE4B2022CF7D310BD000030B585B04A
:1011B0000020019003901948816941F0400181614C
:1011C0008069174D00F040000490FF20012400903A
:1011D000694602942846FFF725F94FF4F850CDE907
:1011E00000040320CDE9024069462846FFF71AF9BA
:1011F000012211022846FFF705FA01229102284632
:10120000FFF700FA012211032846FFF7FBF901223C
:10121000D1022846FFF7F6F905B030BD00100240B4
:101220000018014070B5064E002400EB8005281917
:10123000305C00F0E1F8641CE4B2052CF7D370BD1B
:101240006C1500082DE9F0410D46CF081646804682
:101250003946FFF76DFF00F019F839464046FFF7B1
:1012600067FF00F013F8044639464046FFF760FF79
:1012700005F007000121814016B12143C8B201E009
:1012800024EA0100BDE8F04100F0B6B82DE9F041D4
:10129000184C2078800900F031F80006F9D400F0ED
:1012A00057F8154E012291023046FFF7ABF90122A3
:1012B00011023046FFF7A6F920788009FFF728FFD2
:1012C0000122570239463046FFF79CF90A48083098
:1012D00000680022C5B239463046FFF793F92078FE
:1012E0008009FFF705FF2078401C20702846BDE8E4
:1012F000F081000002000020001801402DE9F041BB
:10130000074600F025F8114D012291022846FFF70B
:1013100079F90022A9152846FFF774F93846FFF736
:10132000F7FE0122560231462846FFF76BF90748BF
:10133000083000680022C4B231462846FFF762F93F
:101340003846FFF7D5FE2046BDE8F0810018014081
:101350001FB5002001900390FF2000900120029013
:1013600069460248FFF75EF81FBD00000018014003
:101370001FB5FF20009001200190029003200390F0
:1013800069460248FFF74EF81FBD000000180140F3
:1013900070B50C4606463046FFF7B0FF0006FAD49B
:1013A000144D00224FF480612846FFF72BF90022EC
:1013B000A9152846FFF726F9FFF7DAFF3046FFF7B1
:1013C000A7FE0C4A0C32106800F47F4010601068D1
:1013D000204310600122540221462846FFF712F9EB
:1013E000002221462846FFF70DF93046BDE870403F
:1013F000FFF77EBE0018014070B51B4C05462078F3
:101400008009FFF77BFF0006F9D4184E00224FF445
:1014100080613046FFF7F6F8012211023046FFF7EF
:10142000F1F8FFF7A5FF20788009FFF771FE0F495B
:101430000C31086800F47F400860086828430860A1
:101440004D15012229463046FFF7DCF800222946D7
:101450003046FFF7D7F820788009FFF749FE20785B
:10146000401C207070BD00000200002000180140E8
:10147000FFF7DCF8FFF77EFDFFF704FDFFF750FDF7
:101480002948FFF7D1FCFFF783FEFFF718FEFFF7AF
:10149000F6FDDFF898B04FF00A0A5846BBF8001086
:1014A00029B100882249B1FBF0F0401E84B25046B9
:1014B000B4FBF0F10AFB1149B4FBF0F1B1FBF0F21F
:1014C0000AFB1218B1FBF0F1B1FBF0F20AFB1217A4
:1014D000B1FBF0F1B1FBF0F22546B1FBFAF40AFBE7
:1014E000121600210846FFF723FE3034E0B2FFF762
:1014F00099FE3036F0B2FFF795FE3037F8B2FFF7BD
:1015000091FE08F13002D0B2FFF78CFE09F13001F4
:10151000C8B2FFF787FE4FF49670B5FBF0F0C0B28B
:1015200000F008F8B9E700001400002000000020D7
:10153000C027090070B5642800D96420C0EB4010B2
:1015400080006421B0FBF1F0C5B206210220FFF754
:10155000EFFD0024AC4201D8FF2000E00020FFF79F
:101560004BFF641CE4B27C2CF4D370BD0102040870
:10157000100000000000000000000000000000005B
:10158000000000000000000000000000000000005B
:10159000000000000000000000000000000000004B
:1015A000000000000000000000000000000000003B
:1015B000000000000000000000000000000000002B
:1015C000000000000000000000000000000000001B
:1015D000000000000000000000000000000000000B
:1015E00000000000000000000000000000000000FB
:1015F00000000000000000000000000000000000EB
:1016000000000000000000000000000000000000DA
:101610000000004F00000007000700147F147F1433
:10162000242A7F2A12231308646236495522500067
:1016300005030000001C2241000041221C00140888
:101640003E081408083E080800503000000808084A
:101650000808006060000020100804023E5149455F
:101660003E00427F400042615149462141454B3195
:101670001814127F1027454545393C4A4949300125
:10168000710905033649494936064949291E00367C
:1016900036000000563600000814224100141414CD
:1016A00014140041221408020151090632497941FB
:1016B0003E7E1111117E7F494949363E414141220A
:1016C0007F4141221C7F494949417F090909013E67
:1016D0004149497A7F0808087F00417F4100204046
:1016E000413F017F081422417F404040407F020C6F
:1016F000027F7F0408107F3E4141413E7F09090976
:10170000067E81A141BE7F091929464649494931D2
:1017100001017F01013F4040403F1F2040201F3F0B
:101720004038403F6314081463070870080761518C
:10173000494543007F414100020408102000414117
:101740007F000402010204404040404000010204C6
:101750000020545454787F4844443838444444204A
:10176000384444487F3854545418087E0901020C08
:101770005252523E7F0804047800447D40002040CD
:10178000443D007F1028440000417F40007C041845
:1017900004787C0804047838444444387C141414D5
:1017A00008081414187C7C08040408485454542075
:1017B000043F4440203C4040207C1C2040201C3CF6
:1017C0004030403C44281028440C5050503C446465
:1017D000544C44000836410000007F0000004136B0
:1017E000080008082A1C08081C2A08080000000035
:1017F0000000000001020304060708091C18000885
:1018000000000020140000008C01000830180008BF
:1018100014000020AC060000A80100080000000031
:101820000100000010000000000000000024F4008F
:04000005080001519D
:00000001FF
